:020000040800F2
:100000000004002001010008250100082701000864
:10001000290100082B0100082D0100080000000044
:100020000000000000000000000000002F01000898
:10003000310100080000000033010008350100080C
:1000400037010008370100083701000837010008B0
:1000500037010008370100083701000837010008A0
:100060003701000837010008370100083701000890
:100070003701000837010008370100083701000880
:100080003701000837010008370100083701000870
:100090003701000837010008370100083701000860
:1000A0003701000837010008370100083701000850
:1000B0003701000837010008370100083701000840
:1000C0003701000837010008370100083701000830
:1000D0003701000837010008370100083701000820
:1000E000370100083701000837010008DFF80CD09D
:1000F00000F040F800480047DD010008000400203F
:100100000D488047DFF83400016841F4E0210160C8
:10011000BFF34F8FDFF82800DFF8281001600A488E
:1001200000477047FEE7FEE7FEE7FEE7FEE7FEE773
:10013000FEE7FEE7FEE7FEE72301000824ED00E00E
:100140000CED00E00003FA05ED000008002801DBDB
:10015000C0F10040002901DBC1F10041814270473C
:10016000002801DBC0F10040002901DBC1F10041A2
:1001700088427047064C074D06E0E06840F00103F6
:1001800094E8070098471034AC42F6D3FFF7B2FF6B
:100190001402000824020008064A074B32F91050E6
:1001A00033F9106005FB05F406FB06F504EB0500CA
:1001B00070470000A40200082402000802E008C8FA
:1001C000121F08C1002AFAD170477047002001E0D1
:1001D00001C1121F002AFBD1704700000C4E0027FE
:1001E000002411E02046FFF7D7FF05463946284690
:1001F000FFF7B6FF01D22F4605E031462846FFF74C
:10020000A5FF00D22E46641C3F2CEBDB00BFFEE7AF
:10021000000020412403000800000020000400002A
:10022000CC010008FF7F627F8A7D7D7A4276E37091
:100230006E6AF262825A34511D47573CFC302825C1
:10024000F9188C0C000074F307E7D8DA04CFA9C3BF
:10025000E3B8CCAE7EA50E9D92951D8FBE89838599
:1002600076829E8000809E8076828385BE891D8FE7
:1002700092950E9D7EA5CCAEE3B8A9C304CFD8DA83
:1002800007E774F300008C0CF9182825FC30573C64
:100290001D473451825AF2626E6AE37042767D7A6B
:1002A0008A7D627F00008C0CF9182825FC30573CB1
:1002B0001D473451825AF2626E6AE37042767D7A4B
:1002C0008A7D627FFF7F627F8A7D7D7A4276E370DE
:1002D0006E6AF262825A34511D47573CFC30282521
:1002E000F9188C0C000074F307E7D8DA04CFA9C31F
:1002F000E3B8CCAE7EA50E9D92951D8FBE898385F9
:1003000076829E8000809E8076828385BE891D8F46
:1003100092950E9D7EA5CCAEE3B8A9C304CFD8DAE2
:0403200007E774F384
:04000005080000ED02
:00000001FF
